{
  "_format": "hh-sol-artifact-1",
  "contractName": "NFTMarketplace",
  "sourceName": "contracts/NFTMarketplace.sol",
  "abi": [
    {
      "inputs": [],
      "stateMutability": "nonpayable",
      "type": "constructor"
    },
    {
      "anonymous": false,
      "inputs": [
        {
          "indexed": true,
          "internalType": "address",
          "name": "owner",
          "type": "address"
        },
        {
          "indexed": true,
          "internalType": "address",
          "name": "approved",
          "type": "address"
        },
        {
          "indexed": true,
          "internalType": "uint256",
          "name": "tokenId",
          "type": "uint256"
        }
      ],
      "name": "Approval",
      "type": "event"
    },
    {
      "anonymous": false,
      "inputs": [
        {
          "indexed": true,
          "internalType": "address",
          "name": "owner",
          "type": "address"
        },
        {
          "indexed": true,
          "internalType": "address",
          "name": "operator",
          "type": "address"
        },
        {
          "indexed": false,
          "internalType": "bool",
          "name": "approved",
          "type": "bool"
        }
      ],
      "name": "ApprovalForAll",
      "type": "event"
    },
    {
      "anonymous": false,
      "inputs": [
        {
          "indexed": true,
          "internalType": "address",
          "name": "from",
          "type": "address"
        },
        {
          "indexed": true,
          "internalType": "address",
          "name": "to",
          "type": "address"
        },
        {
          "indexed": true,
          "internalType": "uint256",
          "name": "tokenId",
          "type": "uint256"
        }
      ],
      "name": "Transfer",
      "type": "event"
    },
    {
      "inputs": [
        {
          "internalType": "address",
          "name": "to",
          "type": "address"
        },
        {
          "internalType": "uint256",
          "name": "tokenId",
          "type": "uint256"
        }
      ],
      "name": "approve",
      "outputs": [],
      "stateMutability": "nonpayable",
      "type": "function"
    },
    {
      "inputs": [
        {
          "internalType": "address",
          "name": "owner",
          "type": "address"
        }
      ],
      "name": "balanceOf",
      "outputs": [
        {
          "internalType": "uint256",
          "name": "",
          "type": "uint256"
        }
      ],
      "stateMutability": "view",
      "type": "function"
    },
    {
      "inputs": [
        {
          "internalType": "string",
          "name": "tokenURI",
          "type": "string"
        },
        {
          "internalType": "uint256",
          "name": "price",
          "type": "uint256"
        }
      ],
      "name": "createToken",
      "outputs": [
        {
          "internalType": "uint256",
          "name": "",
          "type": "uint256"
        }
      ],
      "stateMutability": "payable",
      "type": "function"
    },
    {
      "inputs": [],
      "name": "getAllNFTs",
      "outputs": [
        {
          "components": [
            {
              "internalType": "uint256",
              "name": "tokenId",
              "type": "uint256"
            },
            {
              "internalType": "address payable",
              "name": "owner",
              "type": "address"
            },
            {
              "internalType": "address payable",
              "name": "seller",
              "type": "address"
            },
            {
              "internalType": "uint256",
              "name": "price",
              "type": "uint256"
            },
            {
              "internalType": "bool",
              "name": "currentlyListed",
              "type": "bool"
            }
          ],
          "internalType": "struct NFTMarketplace.ListedToken[]",
          "name": "",
          "type": "tuple[]"
        }
      ],
      "stateMutability": "view",
      "type": "function"
    },
    {
      "inputs": [
        {
          "internalType": "uint256",
          "name": "tokenId",
          "type": "uint256"
        }
      ],
      "name": "getApproved",
      "outputs": [
        {
          "internalType": "address",
          "name": "",
          "type": "address"
        }
      ],
      "stateMutability": "view",
      "type": "function"
    },
    {
      "inputs": [],
      "name": "getCurrentToken",
      "outputs": [
        {
          "internalType": "uint256",
          "name": "",
          "type": "uint256"
        }
      ],
      "stateMutability": "view",
      "type": "function"
    },
    {
      "inputs": [],
      "name": "getLatestIdToListedToken",
      "outputs": [
        {
          "components": [
            {
              "internalType": "uint256",
              "name": "tokenId",
              "type": "uint256"
            },
            {
              "internalType": "address payable",
              "name": "owner",
              "type": "address"
            },
            {
              "internalType": "address payable",
              "name": "seller",
              "type": "address"
            },
            {
              "internalType": "uint256",
              "name": "price",
              "type": "uint256"
            },
            {
              "internalType": "bool",
              "name": "currentlyListed",
              "type": "bool"
            }
          ],
          "internalType": "struct NFTMarketplace.ListedToken",
          "name": "",
          "type": "tuple"
        }
      ],
      "stateMutability": "view",
      "type": "function"
    },
    {
      "inputs": [],
      "name": "getListPrice",
      "outputs": [
        {
          "internalType": "uint256",
          "name": "",
          "type": "uint256"
        }
      ],
      "stateMutability": "view",
      "type": "function"
    },
    {
      "inputs": [
        {
          "internalType": "uint256",
          "name": "tokenId",
          "type": "uint256"
        }
      ],
      "name": "getListedForTokenId",
      "outputs": [
        {
          "components": [
            {
              "internalType": "uint256",
              "name": "tokenId",
              "type": "uint256"
            },
            {
              "internalType": "address payable",
              "name": "owner",
              "type": "address"
            },
            {
              "internalType": "address payable",
              "name": "seller",
              "type": "address"
            },
            {
              "internalType": "uint256",
              "name": "price",
              "type": "uint256"
            },
            {
              "internalType": "bool",
              "name": "currentlyListed",
              "type": "bool"
            }
          ],
          "internalType": "struct NFTMarketplace.ListedToken",
          "name": "",
          "type": "tuple"
        }
      ],
      "stateMutability": "view",
      "type": "function"
    },
    {
      "inputs": [],
      "name": "getMyNFTs",
      "outputs": [
        {
          "components": [
            {
              "internalType": "uint256",
              "name": "tokenId",
              "type": "uint256"
            },
            {
              "internalType": "address payable",
              "name": "owner",
              "type": "address"
            },
            {
              "internalType": "address payable",
              "name": "seller",
              "type": "address"
            },
            {
              "internalType": "uint256",
              "name": "price",
              "type": "uint256"
            },
            {
              "internalType": "bool",
              "name": "currentlyListed",
              "type": "bool"
            }
          ],
          "internalType": "struct NFTMarketplace.ListedToken[]",
          "name": "",
          "type": "tuple[]"
        }
      ],
      "stateMutability": "view",
      "type": "function"
    },
    {
      "inputs": [
        {
          "internalType": "address",
          "name": "owner",
          "type": "address"
        },
        {
          "internalType": "address",
          "name": "operator",
          "type": "address"
        }
      ],
      "name": "isApprovedForAll",
      "outputs": [
        {
          "internalType": "bool",
          "name": "",
          "type": "bool"
        }
      ],
      "stateMutability": "view",
      "type": "function"
    },
    {
      "inputs": [],
      "name": "name",
      "outputs": [
        {
          "internalType": "string",
          "name": "",
          "type": "string"
        }
      ],
      "stateMutability": "view",
      "type": "function"
    },
    {
      "inputs": [
        {
          "internalType": "uint256",
          "name": "tokenId",
          "type": "uint256"
        }
      ],
      "name": "ownerOf",
      "outputs": [
        {
          "internalType": "address",
          "name": "",
          "type": "address"
        }
      ],
      "stateMutability": "view",
      "type": "function"
    },
    {
      "inputs": [
        {
          "internalType": "address",
          "name": "from",
          "type": "address"
        },
        {
          "internalType": "address",
          "name": "to",
          "type": "address"
        },
        {
          "internalType": "uint256",
          "name": "tokenId",
          "type": "uint256"
        }
      ],
      "name": "safeTransferFrom",
      "outputs": [],
      "stateMutability": "nonpayable",
      "type": "function"
    },
    {
      "inputs": [
        {
          "internalType": "address",
          "name": "from",
          "type": "address"
        },
        {
          "internalType": "address",
          "name": "to",
          "type": "address"
        },
        {
          "internalType": "uint256",
          "name": "tokenId",
          "type": "uint256"
        },
        {
          "internalType": "bytes",
          "name": "_data",
          "type": "bytes"
        }
      ],
      "name": "safeTransferFrom",
      "outputs": [],
      "stateMutability": "nonpayable",
      "type": "function"
    },
    {
      "inputs": [
        {
          "internalType": "address",
          "name": "operator",
          "type": "address"
        },
        {
          "internalType": "bool",
          "name": "approved",
          "type": "bool"
        }
      ],
      "name": "setApprovalForAll",
      "outputs": [],
      "stateMutability": "nonpayable",
      "type": "function"
    },
    {
      "inputs": [
        {
          "internalType": "bytes4",
          "name": "interfaceId",
          "type": "bytes4"
        }
      ],
      "name": "supportsInterface",
      "outputs": [
        {
          "internalType": "bool",
          "name": "",
          "type": "bool"
        }
      ],
      "stateMutability": "view",
      "type": "function"
    },
    {
      "inputs": [],
      "name": "symbol",
      "outputs": [
        {
          "internalType": "string",
          "name": "",
          "type": "string"
        }
      ],
      "stateMutability": "view",
      "type": "function"
    },
    {
      "inputs": [
        {
          "internalType": "uint256",
          "name": "tokenId",
          "type": "uint256"
        }
      ],
      "name": "tokenURI",
      "outputs": [
        {
          "internalType": "string",
          "name": "",
          "type": "string"
        }
      ],
      "stateMutability": "view",
      "type": "function"
    },
    {
      "inputs": [
        {
          "internalType": "address",
          "name": "from",
          "type": "address"
        },
        {
          "internalType": "address",
          "name": "to",
          "type": "address"
        },
        {
          "internalType": "uint256",
          "name": "tokenId",
          "type": "uint256"
        }
      ],
      "name": "transferFrom",
      "outputs": [],
      "stateMutability": "nonpayable",
      "type": "function"
    },
    {
      "inputs": [
        {
          "internalType": "uint256",
          "name": "_listPrice",
          "type": "uint256"
        }
      ],
      "name": "updateListPrice",
      "outputs": [],
      "stateMutability": "payable",
      "type": "function"
    }
  ],
  "bytecode": "0x6080604052662386f26fc10000600a553480156200001c57600080fd5b50604080518082018252600e81526d4e46544d61726b6574706c61636560901b6020808301918252835180850190945260048452634e46544d60e01b9084015281519192916200006f91600091620000a0565b50805162000085906001906020840190620000a0565b5050600780546001600160a01b031916331790555062000183565b828054620000ae9062000146565b90600052602060002090601f016020900481019282620000d257600085556200011d565b82601f10620000ed57805160ff19168380011785556200011d565b828001600101855582156200011d579182015b828111156200011d57825182559160200191906001019062000100565b506200012b9291506200012f565b5090565b5b808211156200012b576000815560010162000130565b600181811c908216806200015b57607f821691505b602082108114156200017d57634e487b7160e01b600052602260045260246000fd5b50919050565b611fd780620001936000396000f3fe60806040526004361061012a5760003560e01c806372b3b620116100ab578063c322579c1161006f578063c322579c14610336578063c87b56dd14610349578063d1a88ae514610369578063e0391b091461037e578063e985e9c514610393578063ef2d1746146103dc57600080fd5b806372b3b620146102a157806395d89b41146102b457806398c3df16146102c9578063a22cb465146102f6578063b88d4fde1461031657600080fd5b806342842e0e116100f257806342842e0e14610200578063629cb2e4146102205780636352211e1461024257806368f1945f1461026257806370a082311461028157600080fd5b806301ffc9a71461012f57806306fdde0314610164578063081812fc14610186578063095ea7b3146101be57806323b872dd146101e0575b600080fd5b34801561013b57600080fd5b5061014f61014a366004611bdd565b6103f1565b60405190151581526020015b60405180910390f35b34801561017057600080fd5b50610179610443565b60405161015b9190611da9565b34801561019257600080fd5b506101a66101a1366004611c6b565b6104d5565b6040516001600160a01b03909116815260200161015b565b3480156101ca57600080fd5b506101de6101d9366004611bb4565b610562565b005b3480156101ec57600080fd5b506101de6101fb366004611ac6565b610678565b34801561020c57600080fd5b506101de61021b366004611ac6565b6106a9565b34801561022c57600080fd5b506102356106c4565b60405161015b9190611d5b565b34801561024e57600080fd5b506101a661025d366004611c6b565b610909565b34801561026e57600080fd5b50600a545b60405190815260200161015b565b34801561028d57600080fd5b5061027361029c366004611a7a565b610980565b6102736102af366004611c15565b610a07565b3480156102c057600080fd5b50610179610af5565b3480156102d557600080fd5b506102e96102e4366004611c6b565b610b04565b60405161015b9190611e5f565b34801561030257600080fd5b506101de610311366004611b7a565b610b6e565b34801561032257600080fd5b506101de610331366004611b01565b610b7d565b6101de610344366004611c6b565b610bb5565b34801561035557600080fd5b50610179610364366004611c6b565b610c24565b34801561037557600080fd5b506102e9610d9b565b34801561038a57600080fd5b50610235610e12565b34801561039f57600080fd5b5061014f6103ae366004611a94565b6001600160a01b03918216600090815260056020908152604080832093909416825291909152205460ff1690565b3480156103e857600080fd5b50610273610f59565b60006001600160e01b031982166380ac58cd60e01b148061042257506001600160e01b03198216635b5e139f60e01b145b8061043d57506301ffc9a760e01b6001600160e01b03198316145b92915050565b60606000805461045290611edc565b80601f016020809104026020016040519081016040528092919081815260200182805461047e90611edc565b80156104cb5780601f106104a0576101008083540402835291602001916104cb565b820191906000526020600020905b8154815290600101906020018083116104ae57829003601f168201915b5050505050905090565b60006104e082610f69565b6105465760405162461bcd60e51b815260206004820152602c60248201527f4552433732313a20617070726f76656420717565727920666f72206e6f6e657860448201526b34b9ba32b73a103a37b5b2b760a11b60648201526084015b60405180910390fd5b506000908152600460205260409020546001600160a01b031690565b600061056d82610909565b9050806001600160a01b0316836001600160a01b031614156105db5760405162461bcd60e51b815260206004820152602160248201527f4552433732313a20617070726f76616c20746f2063757272656e74206f776e656044820152603960f91b606482015260840161053d565b336001600160a01b03821614806105f757506105f781336103ae565b6106695760405162461bcd60e51b815260206004820152603860248201527f4552433732313a20617070726f76652063616c6c6572206973206e6f74206f7760448201527f6e6572206e6f7220617070726f76656420666f7220616c6c0000000000000000606482015260840161053d565b6106738383610f86565b505050565b6106823382610ff4565b61069e5760405162461bcd60e51b815260040161053d90611e0e565b6106738383836110dd565b61067383838360405180602001604052806000815250610b7d565b606060006106d160085490565b905060008060005b838110156107695733600b60006106f1846001611e6d565b81526020810191909152604001600020600101546001600160a01b03161480610744575033600b6000610725846001611e6d565b81526020810191909152604001600020600201546001600160a01b0316145b1561075757610754600184611e6d565b92505b8061076181611f17565b9150506106d9565b5060008267ffffffffffffffff81111561079357634e487b7160e01b600052604160045260246000fd5b6040519080825280602002602001820160405280156107cc57816020015b6107b9611921565b8152602001906001900390816107b15790505b50905060005b848110156109005733600b60006107ea846001611e6d565b81526020810191909152604001600020600101546001600160a01b0316148061083d575033600b600061081e846001611e6d565b81526020810191909152604001600020600201546001600160a01b0316145b156108ee57600061084f826001611e6d565b6000818152600b6020908152604091829020825160a0810184528154815260018201546001600160a01b039081169382019390935260028201549092169282019290925260038201546060820152600482015460ff1615156080820152855192935090918590879081106108d357634e487b7160e01b600052603260045260246000fd5b60209081029190910101526108e9600186611e6d565b945050505b806108f881611f17565b9150506107d2565b50949350505050565b6000818152600260205260408120546001600160a01b03168061043d5760405162461bcd60e51b815260206004820152602960248201527f4552433732313a206f776e657220717565727920666f72206e6f6e657869737460448201526832b73a103a37b5b2b760b91b606482015260840161053d565b60006001600160a01b0382166109eb5760405162461bcd60e51b815260206004820152602a60248201527f4552433732313a2062616c616e636520717565727920666f7220746865207a65604482015269726f206164647265737360b01b606482015260840161053d565b506001600160a01b031660009081526003602052604090205490565b6000600a543414610a5a5760405162461bcd60e51b815260206004820152601960248201527f53656e6420656e6f75676820657468657220746f206c69737400000000000000604482015260640161053d565b60008211610ab55760405162461bcd60e51b815260206004820152602260248201527f4d616b652073757265207468652070726963652069736e2774206e6567617469604482015261766560f01b606482015260840161053d565b610ac3600880546001019055565b6000610ace60085490565b9050610ada3382611279565b610ae48185611293565b610aee818461131e565b9392505050565b60606001805461045290611edc565b610b0c611921565b506000908152600b6020908152604091829020825160a0810184528154815260018201546001600160a01b03908116938201939093526002820154909216928201929092526003820154606082015260049091015460ff161515608082015290565b610b793383836113bb565b5050565b610b873383610ff4565b610ba35760405162461bcd60e51b815260040161053d90611e0e565b610baf8484848461148a565b50505050565b6007546001600160a01b03163314610c1f5760405162461bcd60e51b815260206004820152602760248201527f4f6e6c79206f776e65722063616e2075706461746520746865206c697374696e6044820152666720707269636560c81b606482015260840161053d565b600a55565b6060610c2f82610f69565b610c955760405162461bcd60e51b815260206004820152603160248201527f45524337323155524953746f726167653a2055524920717565727920666f72206044820152703737b732bc34b9ba32b73a103a37b5b2b760791b606482015260840161053d565b60008281526006602052604081208054610cae90611edc565b80601f0160208091040260200160405190810160405280929190818152602001828054610cda90611edc565b8015610d275780601f10610cfc57610100808354040283529160200191610d27565b820191906000526020600020905b815481529060010190602001808311610d0a57829003601f168201915b505050505090506000610d4560408051602081019091526000815290565b9050805160001415610d58575092915050565b815115610d8a578082604051602001610d72929190611cef565b60405160208183030381529060405292505050919050565b610d93846114bd565b949350505050565b610da3611921565b6000610dae60085490565b6000908152600b6020908152604091829020825160a0810184528154815260018201546001600160a01b03908116938201939093526002820154909216928201929092526003820154606082015260049091015460ff161515608082015292915050565b60606000610e1f60085490565b905060008167ffffffffffffffff811115610e4a57634e487b7160e01b600052604160045260246000fd5b604051908082528060200260200182016040528015610e8357816020015b610e70611921565b815260200190600190039081610e685790505b5090506000805b83811015610f50576000610e9f826001611e6d565b6000818152600b6020908152604091829020825160a0810184528154815260018201546001600160a01b039081169382019390935260028201549092169282019290925260038201546060820152600482015460ff161515608082015286519293509091869086908110610f2357634e487b7160e01b600052603260045260246000fd5b6020908102919091010152610f39600185611e6d565b935050508080610f4890611f17565b915050610e8a565b50909392505050565b6000610f6460085490565b905090565b6000908152600260205260409020546001600160a01b0316151590565b600081815260046020526040902080546001600160a01b0319166001600160a01b0384169081179091558190610fbb82610909565b6001600160a01b03167f8c5be1e5ebec7d5bd14f71427d1e84f3dd0314c0f7b2291e5b200ac8c7c3b92560405160405180910390a45050565b6000610fff82610f69565b6110605760405162461bcd60e51b815260206004820152602c60248201527f4552433732313a206f70657261746f7220717565727920666f72206e6f6e657860448201526b34b9ba32b73a103a37b5b2b760a11b606482015260840161053d565b600061106b83610909565b9050806001600160a01b0316846001600160a01b031614806110b257506001600160a01b0380821660009081526005602090815260408083209388168352929052205460ff165b80610d935750836001600160a01b03166110cb846104d5565b6001600160a01b031614949350505050565b826001600160a01b03166110f082610909565b6001600160a01b0316146111545760405162461bcd60e51b815260206004820152602560248201527f4552433732313a207472616e736665722066726f6d20696e636f72726563742060448201526437bbb732b960d91b606482015260840161053d565b6001600160a01b0382166111b65760405162461bcd60e51b8152602060048201526024808201527f4552433732313a207472616e7366657220746f20746865207a65726f206164646044820152637265737360e01b606482015260840161053d565b6111c1600082610f86565b6001600160a01b03831660009081526003602052604081208054600192906111ea908490611e99565b90915550506001600160a01b0382166000908152600360205260408120805460019290611218908490611e6d565b909155505060008181526002602052604080822080546001600160a01b0319166001600160a01b0386811691821790925591518493918716917fddf252ad1be2c89b69c2b068fc378daa952ba7f163c4a11628f55a4df523b3ef91a4505050565b610b79828260405180602001604052806000815250611594565b61129c82610f69565b6112ff5760405162461bcd60e51b815260206004820152602e60248201527f45524337323155524953746f726167653a2055524920736574206f66206e6f6e60448201526d32bc34b9ba32b73a103a37b5b2b760911b606482015260840161053d565b600082815260066020908152604090912082516106739284019061194f565b6040805160a081018252838152306020808301828152338486018181526060860188815260016080880181815260008c8152600b9097529890952096518755925193860180546001600160a01b039586166001600160a01b03199182161790915590516002870180549190951691161790925551600384015592516004909201805492151560ff1990931692909217909155610b799190846110dd565b816001600160a01b0316836001600160a01b0316141561141d5760405162461bcd60e51b815260206004820152601960248201527f4552433732313a20617070726f766520746f2063616c6c657200000000000000604482015260640161053d565b6001600160a01b03838116600081815260056020908152604080832094871680845294825291829020805460ff191686151590811790915591519182527f17307eab39ab6107e8899845ad3d59bd9653f200f220920489ca2b5937696c31910160405180910390a3505050565b6114958484846110dd565b6114a1848484846115c7565b610baf5760405162461bcd60e51b815260040161053d90611dbc565b60606114c882610f69565b61152c5760405162461bcd60e51b815260206004820152602f60248201527f4552433732314d657461646174613a2055524920717565727920666f72206e6f60448201526e3732bc34b9ba32b73a103a37b5b2b760891b606482015260840161053d565b600061154360408051602081019091526000815290565b905060008151116115635760405180602001604052806000815250610aee565b8061156d846116d4565b60405160200161157e929190611cef565b6040516020818303038152906040529392505050565b61159e83836117ee565b6115ab60008484846115c7565b6106735760405162461bcd60e51b815260040161053d90611dbc565b60006001600160a01b0384163b156116c957604051630a85bd0160e11b81526001600160a01b0385169063150b7a029061160b903390899088908890600401611d1e565b602060405180830381600087803b15801561162557600080fd5b505af1925050508015611655575060408051601f3d908101601f1916820190925261165291810190611bf9565b60015b6116af573d808015611683576040519150601f19603f3d011682016040523d82523d6000602084013e611688565b606091505b5080516116a75760405162461bcd60e51b815260040161053d90611dbc565b805181602001fd5b6001600160e01b031916630a85bd0160e11b149050610d93565b506001949350505050565b6060816116f85750506040805180820190915260018152600360fc1b602082015290565b8160005b8115611722578061170c81611f17565b915061171b9050600a83611e85565b91506116fc565b60008167ffffffffffffffff81111561174b57634e487b7160e01b600052604160045260246000fd5b6040519080825280601f01601f191660200182016040528015611775576020820181803683370190505b5090505b8415610d935761178a600183611e99565b9150611797600a86611f32565b6117a2906030611e6d565b60f81b8183815181106117c557634e487b7160e01b600052603260045260246000fd5b60200101906001600160f81b031916908160001a9053506117e7600a86611e85565b9450611779565b6001600160a01b0382166118445760405162461bcd60e51b815260206004820181905260248201527f4552433732313a206d696e7420746f20746865207a65726f2061646472657373604482015260640161053d565b61184d81610f69565b1561189a5760405162461bcd60e51b815260206004820152601c60248201527f4552433732313a20746f6b656e20616c7265616479206d696e74656400000000604482015260640161053d565b6001600160a01b03821660009081526003602052604081208054600192906118c3908490611e6d565b909155505060008181526002602052604080822080546001600160a01b0319166001600160a01b03861690811790915590518392907fddf252ad1be2c89b69c2b068fc378daa952ba7f163c4a11628f55a4df523b3ef908290a45050565b6040805160a08101825260008082526020820181905291810182905260608101829052608081019190915290565b82805461195b90611edc565b90600052602060002090601f01602090048101928261197d57600085556119c3565b82601f1061199657805160ff19168380011785556119c3565b828001600101855582156119c3579182015b828111156119c35782518255916020019190600101906119a8565b506119cf9291506119d3565b5090565b5b808211156119cf57600081556001016119d4565b600067ffffffffffffffff80841115611a0357611a03611f72565b604051601f8501601f19908116603f01168101908282118183101715611a2b57611a2b611f72565b81604052809350858152868686011115611a4457600080fd5b858560208301376000602087830101525050509392505050565b80356001600160a01b0381168114611a7557600080fd5b919050565b600060208284031215611a8b578081fd5b610aee82611a5e565b60008060408385031215611aa6578081fd5b611aaf83611a5e565b9150611abd60208401611a5e565b90509250929050565b600080600060608486031215611ada578081fd5b611ae384611a5e565b9250611af160208501611a5e565b9150604084013590509250925092565b60008060008060808587031215611b16578081fd5b611b1f85611a5e565b9350611b2d60208601611a5e565b925060408501359150606085013567ffffffffffffffff811115611b4f578182fd5b8501601f81018713611b5f578182fd5b611b6e878235602084016119e8565b91505092959194509250565b60008060408385031215611b8c578182fd5b611b9583611a5e565b915060208301358015158114611ba9578182fd5b809150509250929050565b60008060408385031215611bc6578182fd5b611bcf83611a5e565b946020939093013593505050565b600060208284031215611bee578081fd5b8135610aee81611f88565b600060208284031215611c0a578081fd5b8151610aee81611f88565b60008060408385031215611c27578182fd5b823567ffffffffffffffff811115611c3d578283fd5b8301601f81018513611c4d578283fd5b611c5c858235602084016119e8565b95602094909401359450505050565b600060208284031215611c7c578081fd5b5035919050565b60008151808452611c9b816020860160208601611eb0565b601f01601f19169290920160200192915050565b805182526020808201516001600160a01b039081169184019190915260408083015190911690830152606080820151908301526080908101511515910152565b60008351611d01818460208801611eb0565b835190830190611d15818360208801611eb0565b01949350505050565b6001600160a01b0385811682528416602082015260408101839052608060608201819052600090611d5190830184611c83565b9695505050505050565b6020808252825182820181905260009190848201906040850190845b81811015611d9d57611d8a838551611caf565b9284019260a09290920191600101611d77565b50909695505050505050565b602081526000610aee6020830184611c83565b60208082526032908201527f4552433732313a207472616e7366657220746f206e6f6e20455243373231526560408201527131b2b4bb32b91034b6b83632b6b2b73a32b960711b606082015260800190565b60208082526031908201527f4552433732313a207472616e736665722063616c6c6572206973206e6f74206f6040820152701ddb995c881b9bdc88185c1c1c9bdd9959607a1b606082015260800190565b60a0810161043d8284611caf565b60008219821115611e8057611e80611f46565b500190565b600082611e9457611e94611f5c565b500490565b600082821015611eab57611eab611f46565b500390565b60005b83811015611ecb578181015183820152602001611eb3565b83811115610baf5750506000910152565b600181811c90821680611ef057607f821691505b60208210811415611f1157634e487b7160e01b600052602260045260246000fd5b50919050565b6000600019821415611f2b57611f2b611f46565b5060010190565b600082611f4157611f41611f5c565b500690565b634e487b7160e01b600052601160045260246000fd5b634e487b7160e01b600052601260045260246000fd5b634e487b7160e01b600052604160045260246000fd5b6001600160e01b031981168114611f9e57600080fd5b5056fea26469706673582212200bb24561944e4f56ef1a0e41a4869afe5c005808d28d948ec34053079eaa2f7d64736f6c63430008040033",
  "linkReferences": {},
  "deployedLinkReferences": {}
}